{"abi":[{"type":"constructor","inputs":[{"name":"entryPoint","type":"address","internalType":"contract IEntryPoint"}],"stateMutability":"nonpayable"},{"type":"function","name":"createAccount","inputs":[{"name":"owner","type":"address","internalType":"address"},{"name":"salt","type":"uint256","internalType":"uint256"}],"outputs":[{"name":"","type":"address","internalType":"contract Wallet"}],"stateMutability":"nonpayable"},{"type":"function","name":"getProxyAddress","inputs":[{"name":"owner","type":"address","internalType":"address"},{"name":"salt","type":"uint256","internalType":"uint256"}],"outputs":[{"name":"","type":"address","internalType":"address"}],"stateMutability":"view"},{"type":"function","name":"walletImplementation","inputs":[],"outputs":[{"name":"","type":"address","internalType":"contract Wallet"}],"stateMutability":"view"}],"bytecode":{"object":"0x60a060405234801561001057600080fd5b5060405161238838038061238883398101604081905261002f91610090565b803060405161003d90610083565b6001600160a01b03928316815291166020820152604001604051809103906000f080158015610070573d6000803e3d6000fd5b506001600160a01b0316608052506100c0565b611ac9806108bf83390190565b6000602082840312156100a257600080fd5b81516001600160a01b03811681146100b957600080fd5b9392505050565b6080516107d76100e860003960008181608d01528181610102015261021701526107d76000f3fe608060405234801561001057600080fd5b50600436106100415760003560e01c80632d223d2d146100465780635fbfb9cf146100755780638117abc114610088575b600080fd5b6100596100543660046102c4565b6100af565b6040516001600160a01b03909116815260200160405180910390f35b6100596100833660046102c4565b6101a2565b6100597f000000000000000000000000000000000000000000000000000000000000000081565b6040516001600160a01b0383166024820152600090819060440160408051601f19818403018152918152602080830180516001600160e01b031663189acdbd60e31b179052905191925060009161012a917f000000000000000000000000000000000000000000000000000000000000000091859101610320565b604051602081830303815290604052905060006040518060200161014d906102b7565b601f1982820381018352601f90910116604081905261017191908490602001610362565b60408051601f19818403018152919052805160208201209091506101958682610279565b9450505050505b92915050565b6000806101af84846100af565b90506001600160a01b0381163b80156101ca5750905061019c565b6040516001600160a01b038616602482015260009060440160408051601f198184030181529181526020820180516001600160e01b031663189acdbd60e31b1790525190915060009086907f0000000000000000000000000000000000000000000000000000000000000000908490610242906102b7565b61024d929190610320565b8190604051809103906000f590508015801561026d573d6000803e3d6000fd5b50979650505050505050565b600061028683833061028d565b9392505050565b6000604051836040820152846020820152828152600b8101905060ff815360559020949350505050565b6104108061039283390190565b600080604083850312156102d757600080fd5b82356001600160a01b03811681146102ee57600080fd5b946020939093013593505050565b60005b838110156103175781810151838201526020016102ff565b50506000910152565b60018060a01b0383168152604060208201526000825180604084015261034d8160608501602087016102fc565b601f01601f1916919091016060019392505050565b600083516103748184602088016102fc565b8351908301906103888183602088016102fc565b0194935050505056fe608060405260405161041038038061041083398101604081905261002291610268565b61002c8282610033565b5050610358565b61003c82610092565b6040516001600160a01b038316907fbc7cd75a20ee27fd9adebab32041f755214dbc6bffa90cc0225b39da2e5c2d3b90600090a280511561008657610081828261010e565b505050565b61008e610185565b5050565b806001600160a01b03163b6000036100cd57604051634c9c8ce360e01b81526001600160a01b03821660048201526024015b60405180910390fd5b7f360894a13ba1a3210667c828492db98dca3e2076cc3735a920a3ca505d382bbc80546001600160a01b0319166001600160a01b0392909216919091179055565b6060600080846001600160a01b03168460405161012b919061033c565b600060405180830381855af49150503d8060008114610166576040519150601f19603f3d011682016040523d82523d6000602084013e61016b565b606091505b50909250905061017c8583836101a6565b95945050505050565b34156101a45760405163b398979f60e01b815260040160405180910390fd5b565b6060826101bb576101b682610205565b6101fe565b81511580156101d257506001600160a01b0384163b155b156101fb57604051639996b31560e01b81526001600160a01b03851660048201526024016100c4565b50805b9392505050565b8051156102155780518082602001fd5b604051630a12f52160e11b815260040160405180910390fd5b634e487b7160e01b600052604160045260246000fd5b60005b8381101561025f578181015183820152602001610247565b50506000910152565b6000806040838503121561027b57600080fd5b82516001600160a01b038116811461029257600080fd5b60208401519092506001600160401b038111156102ae57600080fd5b8301601f810185136102bf57600080fd5b80516001600160401b038111156102d8576102d861022e565b604051601f8201601f19908116603f011681016001600160401b03811182821017156103065761030661022e565b60405281815282820160200187101561031e57600080fd5b61032f826020830160208601610244565b8093505050509250929050565b6000825161034e818460208701610244565b9190910192915050565b60aa806103666000396000f3fe6080604052600a600c565b005b60186014601a565b6051565b565b6000604c7f360894a13ba1a3210667c828492db98dca3e2076cc3735a920a3ca505d382bbc546001600160a01b031690565b905090565b3660008037600080366000845af43d6000803e808015606f573d6000f35b3d6000fdfea2646970667358221220914ba626b41267b2e74a1ee98bfd1e4b712253927a973efc2acca09a2d6017b764736f6c634300081a0033a2646970667358221220143f1ed16487973a156c856492b57a6c1395501a41ff3a8a80c920f23e396df764736f6c634300081a003360e06040523060805234801561001457600080fd5b50604051611ac9380380611ac98339810160408190526100339161011c565b6001600160a01b0380831660a052811660c05261004e610055565b5050610156565b7ff0c57e16840df040f15088dc2f81fe391c3923bec73e23a9662efc9c229c6a00805468010000000000000000900460ff16156100a55760405163f92ee8a960e01b815260040160405180910390fd5b80546001600160401b03908116146101045780546001600160401b0319166001600160401b0390811782556040519081527fc7f505b2f371ae2175ee4913f4499e1f2633a7b5936321eed1cdaeb6115181d29060200160405180910390a15b50565b6001600160a01b038116811461010457600080fd5b6000806040838503121561012f57600080fd5b825161013a81610107565b602084015190925061014b81610107565b809150509250929050565b60805160a05160c0516118e96101e060003960008181610352015281816104670152818161071c0152610ce00152600081816102980152818161043501528181610530015281816105ef015281816106ea01528181610839015281816109df01528181610cae0152610ead015260008181610c0701528181610c300152610e2201526118e96000f3fe60806040526004361061010d5760003560e01c8063b0d691fe11610095578063c4d66de811610064578063c4d66de814610320578063c5c0369914610340578063d087d28814610374578063f23a6e6114610389578063f2fde38b146103b657600080fd5b8063b0d691fe14610289578063b61d27f6146102bc578063bc197c81146102dc578063c399ec881461030b57600080fd5b80634a58db19116100dc5780634a58db19146101e35780634f1ef286146101eb57806352d1902d146101fe5780638da5cb5b14610213578063ad3cb1cc1461024b57600080fd5b806301ffc9a714610119578063150b7a021461014e57806319822f7c1461019357806333289a46146101c157600080fd5b3661011457005b600080fd5b34801561012557600080fd5b506101396101343660046112ce565b6103d6565b60405190151581526020015b60405180910390f35b34801561015a57600080fd5b5061017a61016936600461135c565b630a85bd0160e11b95945050505050565b6040516001600160e01b03199091168152602001610145565b34801561019f57600080fd5b506101b36101ae3660046113ca565b610428565b604051908152602001610145565b3480156101cd57600080fd5b506101e16101dc36600461141d565b610504565b005b6101e16105ed565b6101e16101f936600461144c565b6106a3565b34801561020a57600080fd5b506101b36106c2565b34801561021f57600080fd5b50600054610233906001600160a01b031681565b6040516001600160a01b039091168152602001610145565b34801561025757600080fd5b5061027c604051806040016040528060058152602001640352e302e360dc1b81525081565b6040516101459190611537565b34801561029557600080fd5b507f0000000000000000000000000000000000000000000000000000000000000000610233565b3480156102c857600080fd5b506101e16102d736600461156a565b6106df565b3480156102e857600080fd5b5061017a6102f7366004611607565b63bc197c8160e01b98975050505050505050565b34801561031757600080fd5b506101b3610819565b34801561032c57600080fd5b506101e161033b3660046116cb565b6108aa565b34801561034c57600080fd5b506102337f000000000000000000000000000000000000000000000000000000000000000081565b34801561038057600080fd5b506101b36109b8565b34801561039557600080fd5b5061017a6103a43660046116e6565b63f23a6e6160e01b9695505050505050565b3480156103c257600080fd5b506101e16103d13660046116cb565b610a0e565b60006001600160e01b03198216630a85bd0160e11b148061040757506001600160e01b03198216630271189760e51b145b8061042257506001600160e01b031982166301ffc9a760e01b145b92915050565b6000336001600160a01b037f00000000000000000000000000000000000000000000000000000000000000001614806104895750336001600160a01b037f000000000000000000000000000000000000000000000000000000000000000016145b6104ae5760405162461bcd60e51b81526004016104a59061175d565b60405180910390fd5b6104b88484610a80565b90506104c382610b28565b827faa7d84a4e31814e21aa0fdcf1175e56b2476aef4a661028b1866088c1ae21c36826040516104f591815260200190565b60405180910390a29392505050565b6000546001600160a01b0316331461052e5760405162461bcd60e51b81526004016104a590611794565b7f000000000000000000000000000000000000000000000000000000000000000060405163040b850f60e31b8152336004820152602481018390526001600160a01b03919091169063205c287890604401600060405180830381600087803b15801561059957600080fd5b505af11580156105ad573d6000803e3d6000fd5b505050507f0788d719d36264cd922e6e2bb8f52f65b13571d1ea3ddaf8d27b1acfdd18c3d0816040516105e291815260200190565b60405180910390a150565b7f000000000000000000000000000000000000000000000000000000000000000060405163b760faf960e01b81523060048201526001600160a01b03919091169063b760faf99034906024016000604051808303818588803b15801561065257600080fd5b505af1158015610666573d6000803e3d6000fd5b50506040513481523393507fa2a2db73af12c9f5bef6303364d44e78f97e992c353cd8659f3474c471427e9b9250602001905060405180910390a2565b6106ab610bfc565b6106b482610ca3565b6106be8282610d55565b5050565b60006106cc610e17565b5060008051602061189483398151915290565b336001600160a01b037f000000000000000000000000000000000000000000000000000000000000000016148061073e5750336001600160a01b037f000000000000000000000000000000000000000000000000000000000000000016145b61075a5760405162461bcd60e51b81526004016104a59061175d565b600080856001600160a01b03168585856040516107789291906117bc565b60006040518083038185875af1925050503d80600081146107b5576040519150601f19603f3d011682016040523d82523d6000602084013e6107ba565b606091505b5091509150816107cc57805160208201fd5b856001600160a01b03167f47d99ad340f52da66535aff7e10da1ceb85a32bcbd9fa1c42314d194545e14d2868686604051610809939291906117cc565b60405180910390a2505050505050565b6040516370a0823160e01b81523060048201526000906001600160a01b037f000000000000000000000000000000000000000000000000000000000000000016906370a08231906024015b602060405180830381865afa158015610881573d6000803e3d6000fd5b505050506040513d601f19601f820116820180604052508101906108a59190611802565b905090565b7ff0c57e16840df040f15088dc2f81fe391c3923bec73e23a9662efc9c229c6a008054600160401b810460ff1615906001600160401b03166000811580156108ef5750825b90506000826001600160401b0316600114801561090b5750303b155b905081158015610919575080155b156109375760405163f92ee8a960e01b815260040160405180910390fd5b845467ffffffffffffffff19166001178555831561096157845460ff60401b1916600160401b1785555b61096a86610e60565b83156109b057845460ff60401b19168555604051600181527fc7f505b2f371ae2175ee4913f4499e1f2633a7b5936321eed1cdaeb6115181d29060200160405180910390a15b505050505050565b604051631aab3f0d60e11b8152306004820152600060248201819052906001600160a01b037f000000000000000000000000000000000000000000000000000000000000000016906335567e1a90604401610864565b6000546001600160a01b03163314610a385760405162461bcd60e51b81526004016104a590611794565b600080546001600160a01b0319166001600160a01b038316908117825560405190917fa2ea9883a321a3e97b8266c2b078bfeec6d50c711ed71f874a90d500ae2eaf3691a250565b7f19457468657265756d205369676e6564204d6573736167653a0a3332000000006000908152601c829052603c81206000610afd82610ac361010088018861181b565b8080601f016020809104026020016040519081016040528093929190818152602001838380828437600092019190915250610f0092505050565b6000549091506001600160a01b03808316911614610b1c576001610b1f565b60005b95945050505050565b8015610bf957604051600090339060001990849084818181858888f193505050503d8060008114610b75576040519150601f19603f3d011682016040523d82523d6000602084013e610b7a565b606091505b5050905080610bc45760405162461bcd60e51b81526020600482015260166024820152751414915195539117d410565351539517d1905253115160521b60448201526064016104a5565b6040518281527f98dd415137ab115b9c20abc0a15e0deb7a3d90ba2f78ba113b638307c6471e989060200160405180910390a1505b50565b306001600160a01b037f0000000000000000000000000000000000000000000000000000000000000000161480610c8357507f00000000000000000000000000000000000000000000000000000000000000006001600160a01b0316610c77600080516020611894833981519152546001600160a01b031690565b6001600160a01b031614155b15610ca15760405163703e46dd60e11b815260040160405180910390fd5b565b336001600160a01b037f0000000000000000000000000000000000000000000000000000000000000000161480610d025750336001600160a01b037f000000000000000000000000000000000000000000000000000000000000000016145b610d1e5760405162461bcd60e51b81526004016104a59061175d565b6040516001600160a01b038216907febae6b88046560d31d8bf8987d05beaf03b5a0d572b558bc963091ba87ba7ee190600090a250565b816001600160a01b03166352d1902d6040518163ffffffff1660e01b8152600401602060405180830381865afa925050508015610daf575060408051601f3d908101601f19168201909252610dac91810190611802565b60015b610dd757604051634c9c8ce360e01b81526001600160a01b03831660048201526024016104a5565b6000805160206118948339815191528114610e0857604051632a87526960e21b8152600481018290526024016104a5565b610e128383610f2a565b505050565b306001600160a01b037f00000000000000000000000000000000000000000000000000000000000000001614610ca15760405163703e46dd60e11b815260040160405180910390fd5b6001600160a01b038116610e865760405162461bcd60e51b81526004016104a590611794565b600080546001600160a01b0319166001600160a01b038381169182179092556040519081527f0000000000000000000000000000000000000000000000000000000000000000909116907f1f9fd8dea16b9de97abea8a881aae8710c7da8cb2b6be7fc3a293d2328d3dc1a9060200160405180910390a250565b600080600080610f108686610f80565b925092509250610f208282610fcd565b5090949350505050565b610f3382611086565b6040516001600160a01b038316907fbc7cd75a20ee27fd9adebab32041f755214dbc6bffa90cc0225b39da2e5c2d3b90600090a2805115610f7857610e1282826110eb565b6106be611158565b60008060008351604103610fba5760208401516040850151606086015160001a610fac88828585611177565b955095509550505050610fc6565b50508151600091506002905b9250925092565b6000826003811115610fe157610fe1611861565b03610fea575050565b6001826003811115610ffe57610ffe611861565b0361101c5760405163f645eedf60e01b815260040160405180910390fd5b600282600381111561103057611030611861565b036110515760405163fce698f760e01b8152600481018290526024016104a5565b600382600381111561106557611065611861565b036106be576040516335e2f38360e21b8152600481018290526024016104a5565b806001600160a01b03163b6000036110bc57604051634c9c8ce360e01b81526001600160a01b03821660048201526024016104a5565b60008051602061189483398151915280546001600160a01b0319166001600160a01b0392909216919091179055565b6060600080846001600160a01b0316846040516111089190611877565b600060405180830381855af49150503d8060008114611143576040519150601f19603f3d011682016040523d82523d6000602084013e611148565b606091505b5091509150610b1f858383611246565b3415610ca15760405163b398979f60e01b815260040160405180910390fd5b600080807f7fffffffffffffffffffffffffffffff5d576e7357a4501ddfe92f46681b20a08411156111b2575060009150600390508261123c565b604080516000808252602082018084528a905260ff891692820192909252606081018790526080810186905260019060a0016020604051602081039080840390855afa158015611206573d6000803e3d6000fd5b5050604051601f1901519150506001600160a01b0381166112325750600092506001915082905061123c565b9250600091508190505b9450945094915050565b60608261125b57611256826112a5565b61129e565b815115801561127257506001600160a01b0384163b155b1561129b57604051639996b31560e01b81526001600160a01b03851660048201526024016104a5565b50805b9392505050565b8051156112b55780518082602001fd5b604051630a12f52160e11b815260040160405180910390fd5b6000602082840312156112e057600080fd5b81356001600160e01b03198116811461129e57600080fd5b80356001600160a01b038116811461130f57600080fd5b919050565b60008083601f84011261132657600080fd5b5081356001600160401b0381111561133d57600080fd5b60208301915083602082850101111561135557600080fd5b9250929050565b60008060008060006080868803121561137457600080fd5b61137d866112f8565b945061138b602087016112f8565b93506040860135925060608601356001600160401b038111156113ad57600080fd5b6113b988828901611314565b969995985093965092949392505050565b6000806000606084860312156113df57600080fd5b83356001600160401b038111156113f557600080fd5b8401610120818703121561140857600080fd5b95602085013595506040909401359392505050565b60006020828403121561142f57600080fd5b5035919050565b634e487b7160e01b600052604160045260246000fd5b6000806040838503121561145f57600080fd5b611468836112f8565b915060208301356001600160401b0381111561148357600080fd5b8301601f8101851361149457600080fd5b80356001600160401b038111156114ad576114ad611436565b604051601f8201601f19908116603f011681016001600160401b03811182821017156114db576114db611436565b6040528181528282016020018710156114f357600080fd5b816020840160208301376000602083830101528093505050509250929050565b60005b8381101561152e578181015183820152602001611516565b50506000910152565b6020815260008251806020840152611556816040850160208701611513565b601f01601f19169190910160400192915050565b6000806000806060858703121561158057600080fd5b611589856112f8565b93506020850135925060408501356001600160401b038111156115ab57600080fd5b6115b787828801611314565b95989497509550505050565b60008083601f8401126115d557600080fd5b5081356001600160401b038111156115ec57600080fd5b6020830191508360208260051b850101111561135557600080fd5b60008060008060008060008060a0898b03121561162357600080fd5b61162c896112f8565b975061163a60208a016112f8565b965060408901356001600160401b0381111561165557600080fd5b6116618b828c016115c3565b90975095505060608901356001600160401b0381111561168057600080fd5b61168c8b828c016115c3565b90955093505060808901356001600160401b038111156116ab57600080fd5b6116b78b828c01611314565b999c989b5096995094979396929594505050565b6000602082840312156116dd57600080fd5b61129e826112f8565b60008060008060008060a087890312156116ff57600080fd5b611708876112f8565b9550611716602088016112f8565b9450604087013593506060870135925060808701356001600160401b0381111561173f57600080fd5b61174b89828a01611314565b979a9699509497509295939492505050565b6020808252601e908201527f454e545259504f494e545f4f525f464143544f52595f52455155495245440000604082015260600190565b6020808252600e908201526d13d5d3915497d49154555254915160921b604082015260600190565b8183823760009101908152919050565b83815260406020820152816040820152818360608301376000818301606090810191909152601f909201601f1916010192915050565b60006020828403121561181457600080fd5b5051919050565b6000808335601e1984360301811261183257600080fd5b8301803591506001600160401b0382111561184c57600080fd5b60200191503681900382131561135557600080fd5b634e487b7160e01b600052602160045260246000fd5b60008251611889818460208701611513565b919091019291505056fe360894a13ba1a3210667c828492db98dca3e2076cc3735a920a3ca505d382bbca264697066735822122077b56b26d69e032d1768f51890be9ea908f8d9978f825c4291d6d4a89054525664736f6c634300081a0033","linkReferences":{}},"methodIdentifiers":{"createAccount(address,uint256)":"5fbfb9cf","getProxyAddress(address,uint256)":"2d223d2d","walletImplementation()":"8117abc1"},"id":49}