{
  "_format": "hh-sol-artifact-1",
  "contractName": "Wallet",
  "sourceName": "contracts/Wallet.sol",
  "abi": [
    {
      "inputs": [
        {
          "internalType": "contract IEntryPoint",
          "name": "anEntryPoint",
          "type": "address"
        },
        {
          "internalType": "address",
          "name": "ourWalletFactory",
          "type": "address"
        }
      ],
      "stateMutability": "nonpayable",
      "type": "constructor"
    },
    {
      "anonymous": false,
      "inputs": [
        {
          "indexed": false,
          "internalType": "address",
          "name": "previousAdmin",
          "type": "address"
        },
        {
          "indexed": false,
          "internalType": "address",
          "name": "newAdmin",
          "type": "address"
        }
      ],
      "name": "AdminChanged",
      "type": "event"
    },
    {
      "anonymous": false,
      "inputs": [
        {
          "indexed": true,
          "internalType": "address",
          "name": "beacon",
          "type": "address"
        }
      ],
      "name": "BeaconUpgraded",
      "type": "event"
    },
    {
      "anonymous": false,
      "inputs": [
        {
          "indexed": true,
          "internalType": "address",
          "name": "sender",
          "type": "address"
        },
        {
          "indexed": false,
          "internalType": "uint256",
          "name": "amount",
          "type": "uint256"
        }
      ],
      "name": "DepositAdded",
      "type": "event"
    },
    {
      "anonymous": false,
      "inputs": [
        {
          "indexed": false,
          "internalType": "uint256",
          "name": "amount",
          "type": "uint256"
        }
      ],
      "name": "DepositWithdrawn",
      "type": "event"
    },
    {
      "anonymous": false,
      "inputs": [
        {
          "indexed": false,
          "internalType": "uint8",
          "name": "version",
          "type": "uint8"
        }
      ],
      "name": "Initialized",
      "type": "event"
    },
    {
      "anonymous": false,
      "inputs": [
        {
          "indexed": true,
          "internalType": "address",
          "name": "newOwner",
          "type": "address"
        }
      ],
      "name": "OwnerChanged",
      "type": "event"
    },
    {
      "anonymous": false,
      "inputs": [
        {
          "indexed": false,
          "internalType": "uint256",
          "name": "missingAccountFunds",
          "type": "uint256"
        }
      ],
      "name": "PrefundPaid",
      "type": "event"
    },
    {
      "anonymous": false,
      "inputs": [
        {
          "indexed": true,
          "internalType": "address",
          "name": "destination",
          "type": "address"
        },
        {
          "indexed": false,
          "internalType": "uint256",
          "name": "value",
          "type": "uint256"
        },
        {
          "indexed": false,
          "internalType": "bytes",
          "name": "functionData",
          "type": "bytes"
        }
      ],
      "name": "TransactionExecuted",
      "type": "event"
    },
    {
      "anonymous": false,
      "inputs": [
        {
          "indexed": true,
          "internalType": "address",
          "name": "newImplementation",
          "type": "address"
        }
      ],
      "name": "UpgradeAuthorized",
      "type": "event"
    },
    {
      "anonymous": false,
      "inputs": [
        {
          "indexed": true,
          "internalType": "address",
          "name": "implementation",
          "type": "address"
        }
      ],
      "name": "Upgraded",
      "type": "event"
    },
    {
      "anonymous": false,
      "inputs": [
        {
          "indexed": true,
          "internalType": "bytes32",
          "name": "userOpHash",
          "type": "bytes32"
        },
        {
          "indexed": false,
          "internalType": "uint256",
          "name": "validationData",
          "type": "uint256"
        }
      ],
      "name": "UserOperationValidated",
      "type": "event"
    },
    {
      "anonymous": false,
      "inputs": [
        {
          "indexed": true,
          "internalType": "contract IEntryPoint",
          "name": "entryPoint",
          "type": "address"
        },
        {
          "indexed": true,
          "internalType": "address",
          "name": "owner",
          "type": "address"
        }
      ],
      "name": "WalletInitialized",
      "type": "event"
    },
    {
      "inputs": [],
      "name": "addDeposit",
      "outputs": [],
      "stateMutability": "payable",
      "type": "function"
    },
    {
      "inputs": [],
      "name": "entryPoint",
      "outputs": [
        {
          "internalType": "contract IEntryPoint",
          "name": "",
          "type": "address"
        }
      ],
      "stateMutability": "view",
      "type": "function"
    },
    {
      "inputs": [
        {
          "internalType": "address",
          "name": "dest",
          "type": "address"
        },
        {
          "internalType": "uint256",
          "name": "value",
          "type": "uint256"
        },
        {
          "internalType": "bytes",
          "name": "functionData",
          "type": "bytes"
        }
      ],
      "name": "execute",
      "outputs": [],
      "stateMutability": "nonpayable",
      "type": "function"
    },
    {
      "inputs": [
        {
          "internalType": "address[]",
          "name": "dests",
          "type": "address[]"
        },
        {
          "internalType": "uint256[]",
          "name": "values",
          "type": "uint256[]"
        },
        {
          "internalType": "bytes[]",
          "name": "functionDatas",
          "type": "bytes[]"
        }
      ],
      "name": "executeBatch",
      "outputs": [],
      "stateMutability": "nonpayable",
      "type": "function"
    },
    {
      "inputs": [],
      "name": "getDeposit",
      "outputs": [
        {
          "internalType": "uint256",
          "name": "",
          "type": "uint256"
        }
      ],
      "stateMutability": "view",
      "type": "function"
    },
    {
      "inputs": [],
      "name": "getNonce",
      "outputs": [
        {
          "internalType": "uint256",
          "name": "",
          "type": "uint256"
        }
      ],
      "stateMutability": "view",
      "type": "function"
    },
    {
      "inputs": [
        {
          "internalType": "address",
          "name": "anOwner",
          "type": "address"
        }
      ],
      "name": "initialize",
      "outputs": [],
      "stateMutability": "nonpayable",
      "type": "function"
    },
    {
      "inputs": [
        {
          "internalType": "address",
          "name": "",
          "type": "address"
        },
        {
          "internalType": "address",
          "name": "",
          "type": "address"
        },
        {
          "internalType": "uint256[]",
          "name": "",
          "type": "uint256[]"
        },
        {
          "internalType": "uint256[]",
          "name": "",
          "type": "uint256[]"
        },
        {
          "internalType": "bytes",
          "name": "",
          "type": "bytes"
        }
      ],
      "name": "onERC1155BatchReceived",
      "outputs": [
        {
          "internalType": "bytes4",
          "name": "",
          "type": "bytes4"
        }
      ],
      "stateMutability": "pure",
      "type": "function"
    },
    {
      "inputs": [
        {
          "internalType": "address",
          "name": "",
          "type": "address"
        },
        {
          "internalType": "address",
          "name": "",
          "type": "address"
        },
        {
          "internalType": "uint256",
          "name": "",
          "type": "uint256"
        },
        {
          "internalType": "uint256",
          "name": "",
          "type": "uint256"
        },
        {
          "internalType": "bytes",
          "name": "",
          "type": "bytes"
        }
      ],
      "name": "onERC1155Received",
      "outputs": [
        {
          "internalType": "bytes4",
          "name": "",
          "type": "bytes4"
        }
      ],
      "stateMutability": "pure",
      "type": "function"
    },
    {
      "inputs": [
        {
          "internalType": "address",
          "name": "",
          "type": "address"
        },
        {
          "internalType": "address",
          "name": "",
          "type": "address"
        },
        {
          "internalType": "uint256",
          "name": "",
          "type": "uint256"
        },
        {
          "internalType": "bytes",
          "name": "",
          "type": "bytes"
        }
      ],
      "name": "onERC721Received",
      "outputs": [
        {
          "internalType": "bytes4",
          "name": "",
          "type": "bytes4"
        }
      ],
      "stateMutability": "pure",
      "type": "function"
    },
    {
      "inputs": [],
      "name": "owner",
      "outputs": [
        {
          "internalType": "address",
          "name": "",
          "type": "address"
        }
      ],
      "stateMutability": "view",
      "type": "function"
    },
    {
      "inputs": [],
      "name": "proxiableUUID",
      "outputs": [
        {
          "internalType": "bytes32",
          "name": "",
          "type": "bytes32"
        }
      ],
      "stateMutability": "view",
      "type": "function"
    },
    {
      "inputs": [
        {
          "internalType": "bytes4",
          "name": "interfaceId",
          "type": "bytes4"
        }
      ],
      "name": "supportsInterface",
      "outputs": [
        {
          "internalType": "bool",
          "name": "",
          "type": "bool"
        }
      ],
      "stateMutability": "view",
      "type": "function"
    },
    {
      "inputs": [
        {
          "internalType": "address",
          "name": "",
          "type": "address"
        },
        {
          "internalType": "address",
          "name": "",
          "type": "address"
        },
        {
          "internalType": "address",
          "name": "",
          "type": "address"
        },
        {
          "internalType": "uint256",
          "name": "",
          "type": "uint256"
        },
        {
          "internalType": "bytes",
          "name": "",
          "type": "bytes"
        },
        {
          "internalType": "bytes",
          "name": "",
          "type": "bytes"
        }
      ],
      "name": "tokensReceived",
      "outputs": [],
      "stateMutability": "pure",
      "type": "function"
    },
    {
      "inputs": [
        {
          "internalType": "address",
          "name": "newOwner",
          "type": "address"
        }
      ],
      "name": "transferOwnership",
      "outputs": [],
      "stateMutability": "nonpayable",
      "type": "function"
    },
    {
      "inputs": [
        {
          "internalType": "address",
          "name": "newImplementation",
          "type": "address"
        }
      ],
      "name": "upgradeTo",
      "outputs": [],
      "stateMutability": "nonpayable",
      "type": "function"
    },
    {
      "inputs": [
        {
          "internalType": "address",
          "name": "newImplementation",
          "type": "address"
        },
        {
          "internalType": "bytes",
          "name": "data",
          "type": "bytes"
        }
      ],
      "name": "upgradeToAndCall",
      "outputs": [],
      "stateMutability": "payable",
      "type": "function"
    },
    {
      "inputs": [
        {
          "components": [
            {
              "internalType": "address",
              "name": "sender",
              "type": "address"
            },
            {
              "internalType": "uint256",
              "name": "nonce",
              "type": "uint256"
            },
            {
              "internalType": "bytes",
              "name": "initCode",
              "type": "bytes"
            },
            {
              "internalType": "bytes",
              "name": "callData",
              "type": "bytes"
            },
            {
              "internalType": "uint256",
              "name": "callGasLimit",
              "type": "uint256"
            },
            {
              "internalType": "uint256",
              "name": "verificationGasLimit",
              "type": "uint256"
            },
            {
              "internalType": "uint256",
              "name": "preVerificationGas",
              "type": "uint256"
            },
            {
              "internalType": "uint256",
              "name": "maxFeePerGas",
              "type": "uint256"
            },
            {
              "internalType": "uint256",
              "name": "maxPriorityFeePerGas",
              "type": "uint256"
            },
            {
              "internalType": "bytes",
              "name": "paymasterAndData",
              "type": "bytes"
            },
            {
              "internalType": "bytes",
              "name": "signature",
              "type": "bytes"
            }
          ],
          "internalType": "struct UserOperation",
          "name": "userOp",
          "type": "tuple"
        },
        {
          "internalType": "bytes32",
          "name": "userOpHash",
          "type": "bytes32"
        },
        {
          "internalType": "uint256",
          "name": "missingAccountFunds",
          "type": "uint256"
        }
      ],
      "name": "validateUserOp",
      "outputs": [
        {
          "internalType": "uint256",
          "name": "validationData",
          "type": "uint256"
        }
      ],
      "stateMutability": "nonpayable",
      "type": "function"
    },
    {
      "inputs": [],
      "name": "walletFactory",
      "outputs": [
        {
          "internalType": "address",
          "name": "",
          "type": "address"
        }
      ],
      "stateMutability": "view",
      "type": "function"
    },
    {
      "inputs": [
        {
          "internalType": "uint256",
          "name": "amount",
          "type": "uint256"
        }
      ],
      "name": "withdrawDeposit",
      "outputs": [],
      "stateMutability": "nonpayable",
      "type": "function"
    },
    {
      "stateMutability": "payable",
      "type": "receive"
    }
  ],
  "bytecode": "0x60e06040523073ffffffffffffffffffffffffffffffffffffffff1660809073ffffffffffffffffffffffffffffffffffffffff168152503480156200004457600080fd5b5060405162003b5238038062003b5283398181016040528101906200006a91906200025f565b8173ffffffffffffffffffffffffffffffffffffffff1660a08173ffffffffffffffffffffffffffffffffffffffff16815250508073ffffffffffffffffffffffffffffffffffffffff1660c08173ffffffffffffffffffffffffffffffffffffffff1681525050620000e2620000ea60201b60201c565b50506200038a565b600060019054906101000a900460ff16156200013d576040517f08c379a000000000000000000000000000000000000000000000000000000000815260040162000134906200032d565b60405180910390fd5b60ff801660008054906101000a900460ff1660ff1614620001ae5760ff6000806101000a81548160ff021916908360ff1602179055507f7f26b83ff96e1f2b6a682f133852f6798a09c465da95921460cefb384740249860ff604051620001a591906200036d565b60405180910390a15b565b600080fd5b600073ffffffffffffffffffffffffffffffffffffffff82169050919050565b6000620001e282620001b5565b9050919050565b6000620001f682620001d5565b9050919050565b6200020881620001e9565b81146200021457600080fd5b50565b6000815190506200022881620001fd565b92915050565b6200023981620001d5565b81146200024557600080fd5b50565b60008151905062000259816200022e565b92915050565b60008060408385031215620002795762000278620001b0565b5b6000620002898582860162000217565b92505060206200029c8582860162000248565b9150509250929050565b600082825260208201905092915050565b7f496e697469616c697a61626c653a20636f6e747261637420697320696e69746960008201527f616c697a696e6700000000000000000000000000000000000000000000000000602082015250565b600062000315602783620002a6565b91506200032282620002b7565b604082019050919050565b60006020820190508181036000830152620003488162000306565b9050919050565b600060ff82169050919050565b62000367816200034f565b82525050565b60006020820190506200038460008301846200035c565b92915050565b60805160a05160c051613759620003f96000396000818161091e0152818161107b01526113030152600081816108c901528181610e18015281816112ae01526119bf01526000818161073f015281816107cd01528181610bfb01528181610c890152610d3901526137596000f3fe6080604052600436106101225760003560e01c80638da5cb5b116100a0578063c4d66de811610064578063c4d66de8146103c1578063c5c03699146103ea578063d087d28814610415578063f23a6e6114610440578063f2fde38b1461047d57610129565b80638da5cb5b146102da578063b0d691fe14610305578063b61d27f614610330578063bc197c8114610359578063c399ec881461039657610129565b80633a871cdd116100e75780633a871cdd1461022357806347e1da2a146102605780634a58db19146102895780634f1ef2861461029357806352d1902d146102af57610129565b806223de291461012e57806301ffc9a714610157578063150b7a021461019457806333289a46146101d15780633659cfe6146101fa57610129565b3661012957005b600080fd5b34801561013a57600080fd5b50610155600480360381019061015091906120e6565b6104a6565b005b34801561016357600080fd5b5061017e6004803603810190610179919061220d565b6104b0565b60405161018b9190612255565b60405180910390f35b3480156101a057600080fd5b506101bb60048036038101906101b69190612270565b6105ea565b6040516101c89190612307565b60405180910390f35b3480156101dd57600080fd5b506101f860048036038101906101f39190612322565b6105ff565b005b34801561020657600080fd5b50610221600480360381019061021c919061234f565b61073d565b005b34801561022f57600080fd5b5061024a600480360381019061024591906123d7565b6108c5565b6040516102579190612455565b60405180910390f35b34801561026c57600080fd5b5061028760048036038101906102829190612572565b6109ff565b005b610291610b36565b005b6102ad60048036038101906102a89190612767565b610bf9565b005b3480156102bb57600080fd5b506102c4610d35565b6040516102d191906127d2565b60405180910390f35b3480156102e657600080fd5b506102ef610dee565b6040516102fc91906127fc565b60405180910390f35b34801561031157600080fd5b5061031a610e14565b6040516103279190612876565b60405180910390f35b34801561033c57600080fd5b5061035760048036038101906103529190612891565b610e3c565b005b34801561036557600080fd5b50610380600480360381019061037b9190612905565b610e99565b60405161038d9190612307565b60405180910390f35b3480156103a257600080fd5b506103ab610eb1565b6040516103b89190612455565b60405180910390f35b3480156103cd57600080fd5b506103e860048036038101906103e3919061234f565b610f39565b005b3480156103f657600080fd5b506103ff611079565b60405161040c91906127fc565b60405180910390f35b34801561042157600080fd5b5061042a61109d565b6040516104379190612455565b60405180910390f35b34801561044c57600080fd5b50610467600480360381019061046291906129e1565b611128565b6040516104749190612307565b60405180910390f35b34801561048957600080fd5b506104a4600480360381019061049f919061234f565b61113e565b005b5050505050505050565b60007f150b7a02000000000000000000000000000000000000000000000000000000007bffffffffffffffffffffffffffffffffffffffffffffffffffffffff1916827bffffffffffffffffffffffffffffffffffffffffffffffffffffffff1916148061057b57507f4e2312e0000000000000000000000000000000000000000000000000000000007bffffffffffffffffffffffffffffffffffffffffffffffffffffffff1916827bffffffffffffffffffffffffffffffffffffffffffffffffffffffff1916145b806105e357507f01ffc9a7000000000000000000000000000000000000000000000000000000007bffffffffffffffffffffffffffffffffffffffffffffffffffffffff1916827bffffffffffffffffffffffffffffffffffffffffffffffffffffffff1916145b9050919050565b600063150b7a0260e01b905095945050505050565b600060029054906101000a900473ffffffffffffffffffffffffffffffffffffffff1673ffffffffffffffffffffffffffffffffffffffff163373ffffffffffffffffffffffffffffffffffffffff161461068f576040517f08c379a000000000000000000000000000000000000000000000000000000000815260040161068690612ad8565b60405180910390fd5b610697610e14565b73ffffffffffffffffffffffffffffffffffffffff1663205c287833836040518363ffffffff1660e01b81526004016106d1929190612b19565b600060405180830381600087803b1580156106eb57600080fd5b505af11580156106ff573d6000803e3d6000fd5b505050507f0788d719d36264cd922e6e2bb8f52f65b13571d1ea3ddaf8d27b1acfdd18c3d0816040516107329190612455565b60405180910390a150565b7f000000000000000000000000000000000000000000000000000000000000000073ffffffffffffffffffffffffffffffffffffffff163073ffffffffffffffffffffffffffffffffffffffff16036107cb576040517f08c379a00000000000000000000000000000000000000000000000000000000081526004016107c290612bb4565b60405180910390fd5b7f000000000000000000000000000000000000000000000000000000000000000073ffffffffffffffffffffffffffffffffffffffff1661080a611255565b73ffffffffffffffffffffffffffffffffffffffff1614610860576040517f08c379a000000000000000000000000000000000000000000000000000000000815260040161085790612c46565b60405180910390fd5b610869816112ac565b6108c281600067ffffffffffffffff8111156108885761088761263c565b5b6040519080825280601f01601f1916602001820160405280156108ba5781602001600182028036833780820191505090505b5060006113d6565b50565b60007f000000000000000000000000000000000000000000000000000000000000000073ffffffffffffffffffffffffffffffffffffffff163373ffffffffffffffffffffffffffffffffffffffff16148061096c57507f000000000000000000000000000000000000000000000000000000000000000073ffffffffffffffffffffffffffffffffffffffff163373ffffffffffffffffffffffffffffffffffffffff16145b6109ab576040517f08c379a00000000000000000000000000000000000000000000000000000000081526004016109a290612cb2565b60405180910390fd5b6109b58484611544565b90506109c08261161c565b827faa7d84a4e31814e21aa0fdcf1175e56b2476aef4a661028b1866088c1ae21c36826040516109f09190612455565b60405180910390a29392505050565b610a07611730565b8383905086869050148015610a2157508181905084849050145b610a60576040517f08c379a0000000000000000000000000000000000000000000000000000000008152600401610a5790612d1e565b60405180910390fd5b60005b86869050811015610b2d57610b20878783818110610a8457610a83612d3e565b5b9050602002016020810190610a99919061234f565b868684818110610aac57610aab612d3e565b5b90506020020135858585818110610ac657610ac5612d3e565b5b9050602002810190610ad89190612d7c565b8080601f016020809104026020016040519081016040528093929190818152602001838380828437600081840152601f19601f820116905080830192505050505050506117ff565b8080600101915050610a63565b50505050505050565b610b3e610e14565b73ffffffffffffffffffffffffffffffffffffffff1663b760faf934306040518363ffffffff1660e01b8152600401610b7791906127fc565b6000604051808303818588803b158015610b9057600080fd5b505af1158015610ba4573d6000803e3d6000fd5b50505050503373ffffffffffffffffffffffffffffffffffffffff167fa2a2db73af12c9f5bef6303364d44e78f97e992c353cd8659f3474c471427e9b34604051610bef9190612455565b60405180910390a2565b7f000000000000000000000000000000000000000000000000000000000000000073ffffffffffffffffffffffffffffffffffffffff163073ffffffffffffffffffffffffffffffffffffffff1603610c87576040517f08c379a0000000000000000000000000000000000000000000000000000000008152600401610c7e90612bb4565b60405180910390fd5b7f000000000000000000000000000000000000000000000000000000000000000073ffffffffffffffffffffffffffffffffffffffff16610cc6611255565b73ffffffffffffffffffffffffffffffffffffffff1614610d1c576040517f08c379a0000000000000000000000000000000000000000000000000000000008152600401610d1390612c46565b60405180910390fd5b610d25826112ac565b610d31828260016113d6565b5050565b60007f000000000000000000000000000000000000000000000000000000000000000073ffffffffffffffffffffffffffffffffffffffff163073ffffffffffffffffffffffffffffffffffffffff1614610dc5576040517f08c379a0000000000000000000000000000000000000000000000000000000008152600401610dbc90612e51565b60405180910390fd5b7f360894a13ba1a3210667c828492db98dca3e2076cc3735a920a3ca505d382bbc60001b905090565b600060029054906101000a900473ffffffffffffffffffffffffffffffffffffffff1681565b60007f0000000000000000000000000000000000000000000000000000000000000000905090565b610e44611730565b610e93848484848080601f016020809104026020016040519081016040528093929190818152602001838380828437600081840152601f19601f820116905080830192505050505050506117ff565b50505050565b600063bc197c8160e01b905098975050505050505050565b6000610ebb610e14565b73ffffffffffffffffffffffffffffffffffffffff166370a08231306040518263ffffffff1660e01b8152600401610ef391906127fc565b602060405180830381865afa158015610f10573d6000803e3d6000fd5b505050506040513d601f19601f82011682018060405250810190610f349190612e86565b905090565b60008060019054906101000a900460ff16159050808015610f6a5750600160008054906101000a900460ff1660ff16105b80610f975750610f79306118d3565b158015610f965750600160008054906101000a900460ff1660ff16145b5b610fd6576040517f08c379a0000000000000000000000000000000000000000000000000000000008152600401610fcd90612f25565b60405180910390fd5b60016000806101000a81548160ff021916908360ff1602179055508015611013576001600060016101000a81548160ff0219169083151502179055505b61101c826118f6565b80156110755760008060016101000a81548160ff0219169083151502179055507f7f26b83ff96e1f2b6a682f133852f6798a09c465da95921460cefb3847402498600160405161106c9190612f8d565b60405180910390a15b5050565b7f000000000000000000000000000000000000000000000000000000000000000081565b60006110a7610e14565b73ffffffffffffffffffffffffffffffffffffffff166335567e1a3060006040518363ffffffff1660e01b81526004016110e2929190613007565b602060405180830381865afa1580156110ff573d6000803e3d6000fd5b505050506040513d601f19601f820116820180604052508101906111239190612e86565b905090565b600063f23a6e6160e01b90509695505050505050565b600060029054906101000a900473ffffffffffffffffffffffffffffffffffffffff1673ffffffffffffffffffffffffffffffffffffffff163373ffffffffffffffffffffffffffffffffffffffff16146111ce576040517f08c379a00000000000000000000000000000000000000000000000000000000081526004016111c590612ad8565b60405180910390fd5b80600060026101000a81548173ffffffffffffffffffffffffffffffffffffffff021916908373ffffffffffffffffffffffffffffffffffffffff1602179055508073ffffffffffffffffffffffffffffffffffffffff167fa2ea9883a321a3e97b8266c2b078bfeec6d50c711ed71f874a90d500ae2eaf3660405160405180910390a250565b60006112837f360894a13ba1a3210667c828492db98dca3e2076cc3735a920a3ca505d382bbc60001b611a23565b60000160009054906101000a900473ffffffffffffffffffffffffffffffffffffffff16905090565b7f000000000000000000000000000000000000000000000000000000000000000073ffffffffffffffffffffffffffffffffffffffff163373ffffffffffffffffffffffffffffffffffffffff16148061135157507f000000000000000000000000000000000000000000000000000000000000000073ffffffffffffffffffffffffffffffffffffffff163373ffffffffffffffffffffffffffffffffffffffff16145b611390576040517f08c379a000000000000000000000000000000000000000000000000000000000815260040161138790612cb2565b60405180910390fd5b8073ffffffffffffffffffffffffffffffffffffffff167febae6b88046560d31d8bf8987d05beaf03b5a0d572b558bc963091ba87ba7ee160405160405180910390a250565b6114027f4910fdfa16fed3260ed0e7147f7cc6da11a60208b5b9406d12a635614ffd914360001b611a2d565b60000160009054906101000a900460ff16156114265761142183611a37565b61153f565b8273ffffffffffffffffffffffffffffffffffffffff166352d1902d6040518163ffffffff1660e01b8152600401602060405180830381865afa92505050801561148e57506040513d601f19601f8201168201806040525081019061148b9190613045565b60015b6114cd576040517f08c379a00000000000000000000000000000000000000000000000000000000081526004016114c4906130e4565b60405180910390fd5b7f360894a13ba1a3210667c828492db98dca3e2076cc3735a920a3ca505d382bbc60001b8114611532576040517f08c379a000000000000000000000000000000000000000000000000000000000815260040161152990613176565b60405180910390fd5b5061153e838383611af0565b5b505050565b60008061155083611b1c565b905060006115b182868061014001906115699190612d7c565b8080601f016020809104026020016040519081016040528093929190818152602001838380828437600081840152601f19601f82011690508083019250505050505050611b52565b9050600060029054906101000a900473ffffffffffffffffffffffffffffffffffffffff1673ffffffffffffffffffffffffffffffffffffffff168173ffffffffffffffffffffffffffffffffffffffff161461160f576001611612565b60005b9250505092915050565b600081111561172d5760003373ffffffffffffffffffffffffffffffffffffffff16827fffffffffffffffffffffffffffffffffffffffffffffffffffffffffffffffff9060405161166d906131c7565b600060405180830381858888f193505050503d80600081146116ab576040519150601f19603f3d011682016040523d82523d6000602084013e6116b0565b606091505b50509050806116f4576040517f08c379a00000000000000000000000000000000000000000000000000000000081526004016116eb90613228565b60405180910390fd5b7f98dd415137ab115b9c20abc0a15e0deb7a3d90ba2f78ba113b638307c6471e98826040516117239190612455565b60405180910390a1505b50565b611738610e14565b73ffffffffffffffffffffffffffffffffffffffff163373ffffffffffffffffffffffffffffffffffffffff1614806117be5750600060029054906101000a900473ffffffffffffffffffffffffffffffffffffffff1673ffffffffffffffffffffffffffffffffffffffff163373ffffffffffffffffffffffffffffffffffffffff16145b6117fd576040517f08c379a00000000000000000000000000000000000000000000000000000000081526004016117f490613294565b60405180910390fd5b565b6000808473ffffffffffffffffffffffffffffffffffffffff168484604051611828919061331a565b60006040518083038185875af1925050503d8060008114611865576040519150601f19603f3d011682016040523d82523d6000602084013e61186a565b606091505b50915091508161187c57805160208201fd5b8473ffffffffffffffffffffffffffffffffffffffff167f47d99ad340f52da66535aff7e10da1ceb85a32bcbd9fa1c42314d194545e14d285856040516118c492919061337b565b60405180910390a25050505050565b6000808273ffffffffffffffffffffffffffffffffffffffff163b119050919050565b600073ffffffffffffffffffffffffffffffffffffffff168173ffffffffffffffffffffffffffffffffffffffff1603611965576040517f08c379a000000000000000000000000000000000000000000000000000000000815260040161195c90612ad8565b60405180910390fd5b80600060026101000a81548173ffffffffffffffffffffffffffffffffffffffff021916908373ffffffffffffffffffffffffffffffffffffffff1602179055508073ffffffffffffffffffffffffffffffffffffffff167f000000000000000000000000000000000000000000000000000000000000000073ffffffffffffffffffffffffffffffffffffffff167f1f9fd8dea16b9de97abea8a881aae8710c7da8cb2b6be7fc3a293d2328d3dc1a60405160405180910390a350565b6000819050919050565b6000819050919050565b611a40816118d3565b611a7f576040517f08c379a0000000000000000000000000000000000000000000000000000000008152600401611a769061341d565b60405180910390fd5b80611aac7f360894a13ba1a3210667c828492db98dca3e2076cc3735a920a3ca505d382bbc60001b611a23565b60000160006101000a81548173ffffffffffffffffffffffffffffffffffffffff021916908373ffffffffffffffffffffffffffffffffffffffff16021790555050565b611af983611b79565b600082511180611b065750805b15611b1757611b158383611bc8565b505b505050565b60007f19457468657265756d205369676e6564204d6573736167653a0a33320000000060005281601c52603c6000209050919050565b6000806000611b618585611bf5565b91509150611b6e81611c46565b819250505092915050565b611b8281611a37565b8073ffffffffffffffffffffffffffffffffffffffff167fbc7cd75a20ee27fd9adebab32041f755214dbc6bffa90cc0225b39da2e5c2d3b60405160405180910390a250565b6060611bed83836040518060600160405280602781526020016136fd60279139611dac565b905092915050565b6000806041835103611c365760008060006020860151925060408601519150606086015160001a9050611c2a87828585611e32565b94509450505050611c3f565b60006002915091505b9250929050565b60006004811115611c5a57611c5961343d565b5b816004811115611c6d57611c6c61343d565b5b0315611da95760016004811115611c8757611c8661343d565b5b816004811115611c9a57611c9961343d565b5b03611cda576040517f08c379a0000000000000000000000000000000000000000000000000000000008152600401611cd1906134b8565b60405180910390fd5b60026004811115611cee57611ced61343d565b5b816004811115611d0157611d0061343d565b5b03611d41576040517f08c379a0000000000000000000000000000000000000000000000000000000008152600401611d3890613524565b60405180910390fd5b60036004811115611d5557611d5461343d565b5b816004811115611d6857611d6761343d565b5b03611da8576040517f08c379a0000000000000000000000000000000000000000000000000000000008152600401611d9f906135b6565b60405180910390fd5b5b50565b60606000808573ffffffffffffffffffffffffffffffffffffffff1685604051611dd6919061331a565b600060405180830381855af49150503d8060008114611e11576040519150601f19603f3d011682016040523d82523d6000602084013e611e16565b606091505b5091509150611e2786838387611f14565b925050509392505050565b6000807f7fffffffffffffffffffffffffffffff5d576e7357a4501ddfe92f46681b20a08360001c1115611e6d576000600391509150611f0b565b600060018787878760405160008152602001604052604051611e9294939291906135e5565b6020604051602081039080840390855afa158015611eb4573d6000803e3d6000fd5b505050602060405103519050600073ffffffffffffffffffffffffffffffffffffffff168173ffffffffffffffffffffffffffffffffffffffff1603611f0257600060019250925050611f0b565b80600092509250505b94509492505050565b60608315611f76576000835103611f6e57611f2e856118d3565b611f6d576040517f08c379a0000000000000000000000000000000000000000000000000000000008152600401611f6490613676565b60405180910390fd5b5b829050611f81565b611f808383611f89565b5b949350505050565b600082511115611f9c5781518083602001fd5b806040517f08c379a0000000000000000000000000000000000000000000000000000000008152600401611fd091906136da565b60405180910390fd5b6000604051905090565b600080fd5b600080fd5b600073ffffffffffffffffffffffffffffffffffffffff82169050919050565b600061201882611fed565b9050919050565b6120288161200d565b811461203357600080fd5b50565b6000813590506120458161201f565b92915050565b6000819050919050565b61205e8161204b565b811461206957600080fd5b50565b60008135905061207b81612055565b92915050565b600080fd5b600080fd5b600080fd5b60008083601f8401126120a6576120a5612081565b5b8235905067ffffffffffffffff8111156120c3576120c2612086565b5b6020830191508360018202830111156120df576120de61208b565b5b9250929050565b60008060008060008060008060c0898b03121561210657612105611fe3565b5b60006121148b828c01612036565b98505060206121258b828c01612036565b97505060406121368b828c01612036565b96505060606121478b828c0161206c565b955050608089013567ffffffffffffffff81111561216857612167611fe8565b5b6121748b828c01612090565b945094505060a089013567ffffffffffffffff81111561219757612196611fe8565b5b6121a38b828c01612090565b92509250509295985092959890939650565b60007fffffffff0000000000000000000000000000000000000000000000000000000082169050919050565b6121ea816121b5565b81146121f557600080fd5b50565b600081359050612207816121e1565b92915050565b60006020828403121561222357612222611fe3565b5b6000612231848285016121f8565b91505092915050565b60008115159050919050565b61224f8161223a565b82525050565b600060208201905061226a6000830184612246565b92915050565b60008060008060006080868803121561228c5761228b611fe3565b5b600061229a88828901612036565b95505060206122ab88828901612036565b94505060406122bc8882890161206c565b935050606086013567ffffffffffffffff8111156122dd576122dc611fe8565b5b6122e988828901612090565b92509250509295509295909350565b612301816121b5565b82525050565b600060208201905061231c60008301846122f8565b92915050565b60006020828403121561233857612337611fe3565b5b60006123468482850161206c565b91505092915050565b60006020828403121561236557612364611fe3565b5b600061237384828501612036565b91505092915050565b600080fd5b600061016082840312156123985761239761237c565b5b81905092915050565b6000819050919050565b6123b4816123a1565b81146123bf57600080fd5b50565b6000813590506123d1816123ab565b92915050565b6000806000606084860312156123f0576123ef611fe3565b5b600084013567ffffffffffffffff81111561240e5761240d611fe8565b5b61241a86828701612381565b935050602061242b868287016123c2565b925050604061243c8682870161206c565b9150509250925092565b61244f8161204b565b82525050565b600060208201905061246a6000830184612446565b92915050565b60008083601f84011261248657612485612081565b5b8235905067ffffffffffffffff8111156124a3576124a2612086565b5b6020830191508360208202830111156124bf576124be61208b565b5b9250929050565b60008083601f8401126124dc576124db612081565b5b8235905067ffffffffffffffff8111156124f9576124f8612086565b5b6020830191508360208202830111156125155761251461208b565b5b9250929050565b60008083601f84011261253257612531612081565b5b8235905067ffffffffffffffff81111561254f5761254e612086565b5b60208301915083602082028301111561256b5761256a61208b565b5b9250929050565b6000806000806000806060878903121561258f5761258e611fe3565b5b600087013567ffffffffffffffff8111156125ad576125ac611fe8565b5b6125b989828a01612470565b9650965050602087013567ffffffffffffffff8111156125dc576125db611fe8565b5b6125e889828a016124c6565b9450945050604087013567ffffffffffffffff81111561260b5761260a611fe8565b5b61261789828a0161251c565b92509250509295509295509295565b600080fd5b6000601f19601f8301169050919050565b7f4e487b7100000000000000000000000000000000000000000000000000000000600052604160045260246000fd5b6126748261262b565b810181811067ffffffffffffffff821117156126935761269261263c565b5b80604052505050565b60006126a6611fd9565b90506126b2828261266b565b919050565b600067ffffffffffffffff8211156126d2576126d161263c565b5b6126db8261262b565b9050602081019050919050565b82818337600083830152505050565b600061270a612705846126b7565b61269c565b90508281526020810184848401111561272657612725612626565b5b6127318482856126e8565b509392505050565b600082601f83011261274e5761274d612081565b5b813561275e8482602086016126f7565b91505092915050565b6000806040838503121561277e5761277d611fe3565b5b600061278c85828601612036565b925050602083013567ffffffffffffffff8111156127ad576127ac611fe8565b5b6127b985828601612739565b9150509250929050565b6127cc816123a1565b82525050565b60006020820190506127e760008301846127c3565b92915050565b6127f68161200d565b82525050565b600060208201905061281160008301846127ed565b92915050565b6000819050919050565b600061283c61283761283284611fed565b612817565b611fed565b9050919050565b600061284e82612821565b9050919050565b600061286082612843565b9050919050565b61287081612855565b82525050565b600060208201905061288b6000830184612867565b92915050565b600080600080606085870312156128ab576128aa611fe3565b5b60006128b987828801612036565b94505060206128ca8782880161206c565b935050604085013567ffffffffffffffff8111156128eb576128ea611fe8565b5b6128f787828801612090565b925092505092959194509250565b60008060008060008060008060a0898b03121561292557612924611fe3565b5b60006129338b828c01612036565b98505060206129448b828c01612036565b975050604089013567ffffffffffffffff81111561296557612964611fe8565b5b6129718b828c016124c6565b9650965050606089013567ffffffffffffffff81111561299457612993611fe8565b5b6129a08b828c016124c6565b9450945050608089013567ffffffffffffffff8111156129c3576129c2611fe8565b5b6129cf8b828c01612090565b92509250509295985092959890939650565b60008060008060008060a087890312156129fe576129fd611fe3565b5b6000612a0c89828a01612036565b9650506020612a1d89828a01612036565b9550506040612a2e89828a0161206c565b9450506060612a3f89828a0161206c565b935050608087013567ffffffffffffffff811115612a6057612a5f611fe8565b5b612a6c89828a01612090565b92509250509295509295509295565b600082825260208201905092915050565b7f4f574e45525f5245515549524544000000000000000000000000000000000000600082015250565b6000612ac2600e83612a7b565b9150612acd82612a8c565b602082019050919050565b60006020820190508181036000830152612af181612ab5565b9050919050565b6000612b0382611fed565b9050919050565b612b1381612af8565b82525050565b6000604082019050612b2e6000830185612b0a565b612b3b6020830184612446565b9392505050565b7f46756e6374696f6e206d7573742062652063616c6c6564207468726f7567682060008201527f64656c656761746563616c6c0000000000000000000000000000000000000000602082015250565b6000612b9e602c83612a7b565b9150612ba982612b42565b604082019050919050565b60006020820190508181036000830152612bcd81612b91565b9050919050565b7f46756e6374696f6e206d7573742062652063616c6c6564207468726f7567682060008201527f6163746976652070726f78790000000000000000000000000000000000000000602082015250565b6000612c30602c83612a7b565b9150612c3b82612bd4565b604082019050919050565b60006020820190508181036000830152612c5f81612c23565b9050919050565b7f454e545259504f494e545f4f525f464143544f52595f52455155495245440000600082015250565b6000612c9c601e83612a7b565b9150612ca782612c66565b602082019050919050565b60006020820190508181036000830152612ccb81612c8f565b9050919050565b7f41525241595f4c454e4754485f4d49534d415443480000000000000000000000600082015250565b6000612d08601583612a7b565b9150612d1382612cd2565b602082019050919050565b60006020820190508181036000830152612d3781612cfb565b9050919050565b7f4e487b7100000000000000000000000000000000000000000000000000000000600052603260045260246000fd5b600080fd5b600080fd5b600080fd5b60008083356001602003843603038112612d9957612d98612d6d565b5b80840192508235915067ffffffffffffffff821115612dbb57612dba612d72565b5b602083019250600182023603831315612dd757612dd6612d77565b5b509250929050565b7f555550535570677261646561626c653a206d757374206e6f742062652063616c60008201527f6c6564207468726f7567682064656c656761746563616c6c0000000000000000602082015250565b6000612e3b603883612a7b565b9150612e4682612ddf565b604082019050919050565b60006020820190508181036000830152612e6a81612e2e565b9050919050565b600081519050612e8081612055565b92915050565b600060208284031215612e9c57612e9b611fe3565b5b6000612eaa84828501612e71565b91505092915050565b7f496e697469616c697a61626c653a20636f6e747261637420697320616c72656160008201527f647920696e697469616c697a6564000000000000000000000000000000000000602082015250565b6000612f0f602e83612a7b565b9150612f1a82612eb3565b604082019050919050565b60006020820190508181036000830152612f3e81612f02565b9050919050565b6000819050919050565b600060ff82169050919050565b6000612f77612f72612f6d84612f45565b612817565b612f4f565b9050919050565b612f8781612f5c565b82525050565b6000602082019050612fa26000830184612f7e565b92915050565b6000819050919050565b600077ffffffffffffffffffffffffffffffffffffffffffffffff82169050919050565b6000612ff1612fec612fe784612fa8565b612817565b612fb2565b9050919050565b61300181612fd6565b82525050565b600060408201905061301c60008301856127ed565b6130296020830184612ff8565b9392505050565b60008151905061303f816123ab565b92915050565b60006020828403121561305b5761305a611fe3565b5b600061306984828501613030565b91505092915050565b7f45524331393637557067726164653a206e657720696d706c656d656e7461746960008201527f6f6e206973206e6f742055555053000000000000000000000000000000000000602082015250565b60006130ce602e83612a7b565b91506130d982613072565b604082019050919050565b600060208201905081810360008301526130fd816130c1565b9050919050565b7f45524331393637557067726164653a20756e737570706f727465642070726f7860008201527f6961626c65555549440000000000000000000000000000000000000000000000602082015250565b6000613160602983612a7b565b915061316b82613104565b604082019050919050565b6000602082019050818103600083015261318f81613153565b9050919050565b600081905092915050565b50565b60006131b1600083613196565b91506131bc826131a1565b600082019050919050565b60006131d2826131a4565b9150819050919050565b7f50524546554e445f5041594d454e545f4641494c454400000000000000000000600082015250565b6000613212601683612a7b565b915061321d826131dc565b602082019050919050565b6000602082019050818103600083015261324181613205565b9050919050565b7f454e545259504f494e545f4f525f4f574e45525f524551554952454400000000600082015250565b600061327e601c83612a7b565b915061328982613248565b602082019050919050565b600060208201905081810360008301526132ad81613271565b9050919050565b600081519050919050565b60005b838110156132dd5780820151818401526020810190506132c2565b60008484015250505050565b60006132f4826132b4565b6132fe8185613196565b935061330e8185602086016132bf565b80840191505092915050565b600061332682846132e9565b915081905092915050565b600082825260208201905092915050565b600061334d826132b4565b6133578185613331565b93506133678185602086016132bf565b6133708161262b565b840191505092915050565b60006040820190506133906000830185612446565b81810360208301526133a28184613342565b90509392505050565b7f455243313936373a206e657720696d706c656d656e746174696f6e206973206e60008201527f6f74206120636f6e747261637400000000000000000000000000000000000000602082015250565b6000613407602d83612a7b565b9150613412826133ab565b604082019050919050565b60006020820190508181036000830152613436816133fa565b9050919050565b7f4e487b7100000000000000000000000000000000000000000000000000000000600052602160045260246000fd5b7f45434453413a20696e76616c6964207369676e61747572650000000000000000600082015250565b60006134a2601883612a7b565b91506134ad8261346c565b602082019050919050565b600060208201905081810360008301526134d181613495565b9050919050565b7f45434453413a20696e76616c6964207369676e6174757265206c656e67746800600082015250565b600061350e601f83612a7b565b9150613519826134d8565b602082019050919050565b6000602082019050818103600083015261353d81613501565b9050919050565b7f45434453413a20696e76616c6964207369676e6174757265202773272076616c60008201527f7565000000000000000000000000000000000000000000000000000000000000602082015250565b60006135a0602283612a7b565b91506135ab82613544565b604082019050919050565b600060208201905081810360008301526135cf81613593565b9050919050565b6135df81612f4f565b82525050565b60006080820190506135fa60008301876127c3565b61360760208301866135d6565b61361460408301856127c3565b61362160608301846127c3565b95945050505050565b7f416464726573733a2063616c6c20746f206e6f6e2d636f6e7472616374000000600082015250565b6000613660601d83612a7b565b915061366b8261362a565b602082019050919050565b6000602082019050818103600083015261368f81613653565b9050919050565b600081519050919050565b60006136ac82613696565b6136b68185612a7b565b93506136c68185602086016132bf565b6136cf8161262b565b840191505092915050565b600060208201905081810360008301526136f481846136a1565b90509291505056fe416464726573733a206c6f772d6c6576656c2064656c65676174652063616c6c206661696c6564a26469706673582212203f030c67c7c52d24be9e1a6eaf282cfb0e0b3e69e20e3a642dd85c78a7a097fe64736f6c63430008180033",
  "linkReferences": {},
  "deployedLinkReferences": {}
}