{"abi":[{"type":"constructor","inputs":[{"name":"anEntryPoint","type":"address","internalType":"contract IEntryPoint"},{"name":"ourWalletFactory","type":"address","internalType":"address"}],"stateMutability":"nonpayable"},{"type":"receive","stateMutability":"payable"},{"type":"function","name":"UPGRADE_INTERFACE_VERSION","inputs":[],"outputs":[{"name":"","type":"string","internalType":"string"}],"stateMutability":"view"},{"type":"function","name":"addDeposit","inputs":[],"outputs":[],"stateMutability":"payable"},{"type":"function","name":"encodeSignatures","inputs":[{"name":"signature","type":"bytes","internalType":"bytes"}],"outputs":[{"name":"","type":"bytes","internalType":"bytes"}],"stateMutability":"pure"},{"type":"function","name":"entryPoint","inputs":[],"outputs":[{"name":"","type":"address","internalType":"contract IEntryPoint"}],"stateMutability":"view"},{"type":"function","name":"execute","inputs":[{"name":"dest","type":"address","internalType":"address"},{"name":"value","type":"uint256","internalType":"uint256"},{"name":"func","type":"bytes","internalType":"bytes"}],"outputs":[],"stateMutability":"nonpayable"},{"type":"function","name":"executeBatch","inputs":[{"name":"dests","type":"address[]","internalType":"address[]"},{"name":"values","type":"uint256[]","internalType":"uint256[]"},{"name":"funcs","type":"bytes[]","internalType":"bytes[]"}],"outputs":[],"stateMutability":"nonpayable"},{"type":"function","name":"getDeposit","inputs":[],"outputs":[{"name":"","type":"uint256","internalType":"uint256"}],"stateMutability":"view"},{"type":"function","name":"getNonce","inputs":[],"outputs":[{"name":"","type":"uint256","internalType":"uint256"}],"stateMutability":"view"},{"type":"function","name":"initialize","inputs":[{"name":"initialOwner","type":"address","internalType":"address"}],"outputs":[],"stateMutability":"nonpayable"},{"type":"function","name":"onERC1155BatchReceived","inputs":[{"name":"","type":"address","internalType":"address"},{"name":"","type":"address","internalType":"address"},{"name":"","type":"uint256[]","internalType":"uint256[]"},{"name":"","type":"uint256[]","internalType":"uint256[]"},{"name":"","type":"bytes","internalType":"bytes"}],"outputs":[{"name":"","type":"bytes4","internalType":"bytes4"}],"stateMutability":"pure"},{"type":"function","name":"onERC1155Received","inputs":[{"name":"","type":"address","internalType":"address"},{"name":"","type":"address","internalType":"address"},{"name":"","type":"uint256","internalType":"uint256"},{"name":"","type":"uint256","internalType":"uint256"},{"name":"","type":"bytes","internalType":"bytes"}],"outputs":[{"name":"","type":"bytes4","internalType":"bytes4"}],"stateMutability":"pure"},{"type":"function","name":"onERC721Received","inputs":[{"name":"","type":"address","internalType":"address"},{"name":"","type":"address","internalType":"address"},{"name":"","type":"uint256","internalType":"uint256"},{"name":"","type":"bytes","internalType":"bytes"}],"outputs":[{"name":"","type":"bytes4","internalType":"bytes4"}],"stateMutability":"pure"},{"type":"function","name":"owner","inputs":[],"outputs":[{"name":"","type":"address","internalType":"address"}],"stateMutability":"view"},{"type":"function","name":"proxiableUUID","inputs":[],"outputs":[{"name":"","type":"bytes32","internalType":"bytes32"}],"stateMutability":"view"},{"type":"function","name":"supportsInterface","inputs":[{"name":"interfaceId","type":"bytes4","internalType":"bytes4"}],"outputs":[{"name":"","type":"bool","internalType":"bool"}],"stateMutability":"view"},{"type":"function","name":"upgradeToAndCall","inputs":[{"name":"newImplementation","type":"address","internalType":"address"},{"name":"data","type":"bytes","internalType":"bytes"}],"outputs":[],"stateMutability":"payable"},{"type":"function","name":"validateUserOp","inputs":[{"name":"userOp","type":"tuple","internalType":"struct PackedUserOperation","components":[{"name":"sender","type":"address","internalType":"address"},{"name":"nonce","type":"uint256","internalType":"uint256"},{"name":"initCode","type":"bytes","internalType":"bytes"},{"name":"callData","type":"bytes","internalType":"bytes"},{"name":"accountGasLimits","type":"bytes32","internalType":"bytes32"},{"name":"preVerificationGas","type":"uint256","internalType":"uint256"},{"name":"gasFees","type":"bytes32","internalType":"bytes32"},{"name":"paymasterAndData","type":"bytes","internalType":"bytes"},{"name":"signature","type":"bytes","internalType":"bytes"}]},{"name":"userOpHash","type":"bytes32","internalType":"bytes32"},{"name":"missingAccountFunds","type":"uint256","internalType":"uint256"}],"outputs":[{"name":"validationData","type":"uint256","internalType":"uint256"}],"stateMutability":"nonpayable"},{"type":"function","name":"walletFactory","inputs":[],"outputs":[{"name":"","type":"address","internalType":"address"}],"stateMutability":"view"},{"type":"event","name":"Initialized","inputs":[{"name":"version","type":"uint64","indexed":false,"internalType":"uint64"}],"anonymous":false},{"type":"event","name":"Upgraded","inputs":[{"name":"implementation","type":"address","indexed":true,"internalType":"address"}],"anonymous":false},{"type":"event","name":"WalletInitialized","inputs":[{"name":"entryPoint","type":"address","indexed":true,"internalType":"contract IEntryPoint"},{"name":"owner","type":"address","indexed":false,"internalType":"address"}],"anonymous":false},{"type":"error","name":"AddressEmptyCode","inputs":[{"name":"target","type":"address","internalType":"address"}]},{"type":"error","name":"ECDSAInvalidSignature","inputs":[]},{"type":"error","name":"ECDSAInvalidSignatureLength","inputs":[{"name":"length","type":"uint256","internalType":"uint256"}]},{"type":"error","name":"ECDSAInvalidSignatureS","inputs":[{"name":"s","type":"bytes32","internalType":"bytes32"}]},{"type":"error","name":"ERC1967InvalidImplementation","inputs":[{"name":"implementation","type":"address","internalType":"address"}]},{"type":"error","name":"ERC1967NonPayable","inputs":[]},{"type":"error","name":"FailedInnerCall","inputs":[]},{"type":"error","name":"InvalidInitialization","inputs":[]},{"type":"error","name":"NotInitializing","inputs":[]},{"type":"error","name":"UUPSUnauthorizedCallContext","inputs":[]},{"type":"error","name":"UUPSUnsupportedProxiableUUID","inputs":[{"name":"slot","type":"bytes32","internalType":"bytes32"}]}],"bytecode":{"object":"0x60e06040523060805234801561001457600080fd5b50604051611a19380380611a1983398101604081905261003391610062565b6001600160a01b0391821660c0521660a05261009c565b6001600160a01b038116811461005f57600080fd5b50565b6000806040838503121561007557600080fd5b82516100808161004a565b60208401519092506100918161004a565b809150509250929050565b60805160a05160c0516118f3610126600039600081816102b8015281816104590152818161061c0152818161070a015281816107e101528181610987015281816109c101528181610c230152610e1b0152600081816103720152818161048b0152818161073c0152610c55015260008181610b7e01528181610ba70152610d6001526118f36000f3fe60806040526004361061010d5760003560e01c8063ad3cb1cc11610095578063c399ec8811610064578063c399ec881461032b578063c4d66de814610340578063c5c0369914610360578063d087d28814610394578063f23a6e61146103a957600080fd5b8063ad3cb1cc14610278578063b0d691fe146102a9578063b61d27f6146102dc578063bc197c81146102fc57600080fd5b80634a58db19116100dc5780634a58db19146101e35780634b0c7d52146101eb5780634f1ef2861461021857806352d1902d1461022b5780638da5cb5b1461024057600080fd5b806301ffc9a714610119578063150b7a021461014e57806319822f7c1461019357806347e1da2a146101c157600080fd5b3661011457005b600080fd5b34801561012557600080fd5b50610139610134366004611242565b6103d6565b60405190151581526020015b60405180910390f35b34801561015a57600080fd5b5061017a6101693660046112d0565b630a85bd0160e11b95945050505050565b6040516001600160e01b03199091168152602001610145565b34801561019f57600080fd5b506101b36101ae36600461133e565b610428565b604051908152602001610145565b3480156101cd57600080fd5b506101e16101dc3660046113d5565b61044e565b005b6101e161061a565b3480156101f757600080fd5b5061020b61020636600461151b565b61069a565b60405161014591906115a7565b6101e16102263660046115ba565b6106c3565b34801561023757600080fd5b506101b36106e2565b34801561024c57600080fd5b50600054610260906001600160a01b031681565b6040516001600160a01b039091168152602001610145565b34801561028457600080fd5b5061020b604051806040016040528060058152602001640352e302e360dc1b81525081565b3480156102b557600080fd5b507f0000000000000000000000000000000000000000000000000000000000000000610260565b3480156102e857600080fd5b506101e16102f7366004611607565b6106ff565b34801561030857600080fd5b5061017a610317366004611660565b63bc197c8160e01b98975050505050505050565b34801561033757600080fd5b506101b36107c1565b34801561034c57600080fd5b506101e161035b366004611724565b610852565b34801561036c57600080fd5b506102607f000000000000000000000000000000000000000000000000000000000000000081565b3480156103a057600080fd5b506101b3610960565b3480156103b557600080fd5b5061017a6103c436600461173f565b63f23a6e6160e01b9695505050505050565b60006001600160e01b03198216630a85bd0160e11b148061040757506001600160e01b03198216630271189760e51b145b8061042257506001600160e01b031982166301ffc9a760e01b145b92915050565b60006104326109b6565b61043c8484610a30565b905061044782610ab6565b9392505050565b336001600160a01b037f00000000000000000000000000000000000000000000000000000000000000001614806104ad5750336001600160a01b037f000000000000000000000000000000000000000000000000000000000000000016145b6104d25760405162461bcd60e51b81526004016104c9906117a4565b60405180910390fd5b8481146105175760405162461bcd60e51b815260206004820152601360248201527257726f6e67206465737473206c656e6774687360681b60448201526064016104c9565b82811461055d5760405162461bcd60e51b815260206004820152601460248201527357726f6e672076616c756573206c656e6774687360601b60448201526064016104c9565b60005b858110156106115761060987878381811061057d5761057d6117f6565b90506020020160208101906105929190611724565b8686848181106105a4576105a46117f6565b905060200201358585858181106105bd576105bd6117f6565b90506020028101906105cf919061180c565b8080601f016020809104026020016040519081016040528093929190818152602001838380828437600092019190915250610b0392505050565b600101610560565b50505050505050565b7f000000000000000000000000000000000000000000000000000000000000000060405163b760faf960e01b81523060048201526001600160a01b03919091169063b760faf99034906024016000604051808303818588803b15801561067f57600080fd5b505af1158015610693573d6000803e3d6000fd5b5050505050565b6060816040516020016106ad91906115a7565b6040516020818303038152906040529050919050565b6106cb610b73565b6106d482610c18565b6106de8282610c93565b5050565b60006106ec610d55565b5060008051602061189e83398151915290565b336001600160a01b037f000000000000000000000000000000000000000000000000000000000000000016148061075e5750336001600160a01b037f000000000000000000000000000000000000000000000000000000000000000016145b61077a5760405162461bcd60e51b81526004016104c9906117a4565b6107bb848484848080601f016020809104026020016040519081016040528093929190818152602001838380828437600092019190915250610b0392505050565b50505050565b6040516370a0823160e01b81523060048201526000906001600160a01b037f000000000000000000000000000000000000000000000000000000000000000016906370a08231906024015b602060405180830381865afa158015610829573d6000803e3d6000fd5b505050506040513d601f19601f8201168201806040525081019061084d9190611852565b905090565b7ff0c57e16840df040f15088dc2f81fe391c3923bec73e23a9662efc9c229c6a008054600160401b810460ff1615906001600160401b03166000811580156108975750825b90506000826001600160401b031660011480156108b35750303b155b9050811580156108c1575080155b156108df5760405163f92ee8a960e01b815260040160405180910390fd5b845467ffffffffffffffff19166001178555831561090957845460ff60401b1916600160401b1785555b61091286610d9e565b831561095857845460ff60401b19168555604051600181527fc7f505b2f371ae2175ee4913f4499e1f2633a7b5936321eed1cdaeb6115181d29060200160405180910390a15b505050505050565b604051631aab3f0d60e11b8152306004820152600060248201819052906001600160a01b037f000000000000000000000000000000000000000000000000000000000000000016906335567e1a9060440161080c565b336001600160a01b037f00000000000000000000000000000000000000000000000000000000000000001614610a2e5760405162461bcd60e51b815260206004820152601c60248201527f6163636f756e743a206e6f742066726f6d20456e747279506f696e740000000060448201526064016104c9565b565b7f19457468657265756d205369676e6564204d6573736167653a0a3332000000006000908152601c829052603c81206000610a6f61010086018661180c565b810190610a7c919061151b565b9050610a888282610e6e565b6000546001600160a01b03908116911614610aa857600192505050610422565b506000949350505050565b50565b8015610ab357604051600090339060001990849084818181858888f193505050503d8060008114610693576040519150601f19603f3d011682016040523d82523d6000602084013e610693565b600080846001600160a01b03168484604051610b1f919061186b565b60006040518083038185875af1925050503d8060008114610b5c576040519150601f19603f3d011682016040523d82523d6000602084013e610b61565b606091505b50915091508161069357805160208201fd5b306001600160a01b037f0000000000000000000000000000000000000000000000000000000000000000161480610bfa57507f00000000000000000000000000000000000000000000000000000000000000006001600160a01b0316610bee60008051602061189e833981519152546001600160a01b031690565b6001600160a01b031614155b15610a2e5760405163703e46dd60e11b815260040160405180910390fd5b336001600160a01b037f0000000000000000000000000000000000000000000000000000000000000000161480610c775750336001600160a01b037f000000000000000000000000000000000000000000000000000000000000000016145b610ab35760405162461bcd60e51b81526004016104c9906117a4565b816001600160a01b03166352d1902d6040518163ffffffff1660e01b8152600401602060405180830381865afa925050508015610ced575060408051601f3d908101601f19168201909252610cea91810190611852565b60015b610d1557604051634c9c8ce360e01b81526001600160a01b03831660048201526024016104c9565b60008051602061189e8339815191528114610d4657604051632a87526960e21b8152600481018290526024016104c9565b610d508383610e98565b505050565b306001600160a01b037f00000000000000000000000000000000000000000000000000000000000000001614610a2e5760405163703e46dd60e11b815260040160405180910390fd5b6001600160a01b038116610df45760405162461bcd60e51b815260206004820152601c60248201527f4f776e65722063616e6e6f74206265207a65726f20616464726573730000000060448201526064016104c9565b600080546001600160a01b0319166001600160a01b038381169182179092556040519081527f0000000000000000000000000000000000000000000000000000000000000000909116907f1f9fd8dea16b9de97abea8a881aae8710c7da8cb2b6be7fc3a293d2328d3dc1a9060200160405180910390a250565b600080600080610e7e8686610eee565b925092509250610e8e8282610f3b565b5090949350505050565b610ea182610ff4565b6040516001600160a01b038316907fbc7cd75a20ee27fd9adebab32041f755214dbc6bffa90cc0225b39da2e5c2d3b90600090a2805115610ee657610d508282611059565b6106de6110cf565b60008060008351604103610f285760208401516040850151606086015160001a610f1a888285856110ee565b955095509550505050610f34565b50508151600091506002905b9250925092565b6000826003811115610f4f57610f4f611887565b03610f58575050565b6001826003811115610f6c57610f6c611887565b03610f8a5760405163f645eedf60e01b815260040160405180910390fd5b6002826003811115610f9e57610f9e611887565b03610fbf5760405163fce698f760e01b8152600481018290526024016104c9565b6003826003811115610fd357610fd3611887565b036106de576040516335e2f38360e21b8152600481018290526024016104c9565b806001600160a01b03163b60000361102a57604051634c9c8ce360e01b81526001600160a01b03821660048201526024016104c9565b60008051602061189e83398151915280546001600160a01b0319166001600160a01b0392909216919091179055565b6060600080846001600160a01b031684604051611076919061186b565b600060405180830381855af49150503d80600081146110b1576040519150601f19603f3d011682016040523d82523d6000602084013e6110b6565b606091505b50915091506110c68583836111bd565b95945050505050565b3415610a2e5760405163b398979f60e01b815260040160405180910390fd5b600080807f7fffffffffffffffffffffffffffffff5d576e7357a4501ddfe92f46681b20a084111561112957506000915060039050826111b3565b604080516000808252602082018084528a905260ff891692820192909252606081018790526080810186905260019060a0016020604051602081039080840390855afa15801561117d573d6000803e3d6000fd5b5050604051601f1901519150506001600160a01b0381166111a9575060009250600191508290506111b3565b9250600091508190505b9450945094915050565b6060826111d2576111cd82611219565b610447565b81511580156111e957506001600160a01b0384163b155b1561121257604051639996b31560e01b81526001600160a01b03851660048201526024016104c9565b5080610447565b8051156112295780518082602001fd5b604051630a12f52160e11b815260040160405180910390fd5b60006020828403121561125457600080fd5b81356001600160e01b03198116811461044757600080fd5b80356001600160a01b038116811461128357600080fd5b919050565b60008083601f84011261129a57600080fd5b5081356001600160401b038111156112b157600080fd5b6020830191508360208285010111156112c957600080fd5b9250929050565b6000806000806000608086880312156112e857600080fd5b6112f18661126c565b94506112ff6020870161126c565b93506040860135925060608601356001600160401b0381111561132157600080fd5b61132d88828901611288565b969995985093965092949392505050565b60008060006060848603121561135357600080fd5b83356001600160401b0381111561136957600080fd5b8401610120818703121561137c57600080fd5b95602085013595506040909401359392505050565b60008083601f8401126113a357600080fd5b5081356001600160401b038111156113ba57600080fd5b6020830191508360208260051b85010111156112c957600080fd5b600080600080600080606087890312156113ee57600080fd5b86356001600160401b0381111561140457600080fd5b61141089828a01611391565b90975095505060208701356001600160401b0381111561142f57600080fd5b61143b89828a01611391565b90955093505060408701356001600160401b0381111561145a57600080fd5b61146689828a01611391565b979a9699509497509295939492505050565b634e487b7160e01b600052604160045260246000fd5b600082601f83011261149f57600080fd5b81356001600160401b038111156114b8576114b8611478565b604051601f8201601f19908116603f011681016001600160401b03811182821017156114e6576114e6611478565b6040528181528382016020018510156114fe57600080fd5b816020850160208301376000918101602001919091529392505050565b60006020828403121561152d57600080fd5b81356001600160401b0381111561154357600080fd5b61154f8482850161148e565b949350505050565b60005b8381101561157257818101518382015260200161155a565b50506000910152565b60008151808452611593816020860160208601611557565b601f01601f19169290920160200192915050565b602081526000610447602083018461157b565b600080604083850312156115cd57600080fd5b6115d68361126c565b915060208301356001600160401b038111156115f157600080fd5b6115fd8582860161148e565b9150509250929050565b6000806000806060858703121561161d57600080fd5b6116268561126c565b93506020850135925060408501356001600160401b0381111561164857600080fd5b61165487828801611288565b95989497509550505050565b60008060008060008060008060a0898b03121561167c57600080fd5b6116858961126c565b975061169360208a0161126c565b965060408901356001600160401b038111156116ae57600080fd5b6116ba8b828c01611391565b90975095505060608901356001600160401b038111156116d957600080fd5b6116e58b828c01611391565b90955093505060808901356001600160401b0381111561170457600080fd5b6117108b828c01611288565b999c989b5096995094979396929594505050565b60006020828403121561173657600080fd5b6104478261126c565b60008060008060008060a0878903121561175857600080fd5b6117618761126c565b955061176f6020880161126c565b9450604087013593506060870135925060808701356001600160401b0381111561179857600080fd5b61146689828a01611288565b60208082526032908201527f4f6e6c7920656e74727920706f696e74206f7220666163746f72792063616e2060408201527131b0b636103a3434b990333ab731ba34b7b760711b606082015260800190565b634e487b7160e01b600052603260045260246000fd5b6000808335601e1984360301811261182357600080fd5b8301803591506001600160401b0382111561183d57600080fd5b6020019150368190038213156112c957600080fd5b60006020828403121561186457600080fd5b5051919050565b6000825161187d818460208701611557565b9190910192915050565b634e487b7160e01b600052602160045260246000fdfe360894a13ba1a3210667c828492db98dca3e2076cc3735a920a3ca505d382bbca2646970667358221220f54f2801da3eaf42ef684deed4e9fa5d99c7de6adae0cf265aaafe2c348eaf1564736f6c634300081a0033","linkReferences":{}},"methodIdentifiers":{"UPGRADE_INTERFACE_VERSION()":"ad3cb1cc","addDeposit()":"4a58db19","encodeSignatures(bytes)":"4b0c7d52","entryPoint()":"b0d691fe","execute(address,uint256,bytes)":"b61d27f6","executeBatch(address[],uint256[],bytes[])":"47e1da2a","getDeposit()":"c399ec88","getNonce()":"d087d288","initialize(address)":"c4d66de8","onERC1155BatchReceived(address,address,uint256[],uint256[],bytes)":"bc197c81","onERC1155Received(address,address,uint256,uint256,bytes)":"f23a6e61","onERC721Received(address,address,uint256,bytes)":"150b7a02","owner()":"8da5cb5b","proxiableUUID()":"52d1902d","supportsInterface(bytes4)":"01ffc9a7","upgradeToAndCall(address,bytes)":"4f1ef286","validateUserOp((address,uint256,bytes,bytes,bytes32,uint256,bytes32,bytes,bytes),bytes32,uint256)":"19822f7c","walletFactory()":"c5c03699"},"id":48}